:100000000C942A000C9447000C9447000C94470071
:100010000C9447000C9447000C9447000C94470044
:100020000C9447000C9447000C94120C0C94B10BE8
:100030000C9447000C9447000C9447000C94470024
:100040000C9447000C9447000C9447000C94470014
:100050000C94470011241FBECFE5D8E0DEBFCDBF12
:1000600011E0A0E6B0E0EAE1F1E302C005900D92F4
:10007000AC36B107D9F711E0ACE6B1E001C01D9292
:10008000AE37B107E1F70E94B5160C948B180C94AB
:100090000000EF92FF920F931F937B018C0120E0F1
:1000A00030E040E05FE40E94250488238CF0C80122
:1000B000B70120E030E040E05FE40E94C1010E940F
:1000C000E3049B01AC01205030404040504806C042
:1000D000C801B7010E94E3049B01AC01B901CA0148
:1000E0001F910F91FF90EF900895A0E0B0E0EBE733
:1000F000F0E00C94D817DC012B01FA019C919230AE
:1001000008F439C1EB018881823008F433C194309E
:1001100069F4843009F02FC111969C91119789815F
:10012000981709F428C1A0E6B0E025C1843009F48D
:1001300021C18230A9F4923009F01DC19A01AD01AC
:1001400088E0EA010990AE01E90109929E0181501F
:10015000C1F7E201898111969C918923818308C1AD
:10016000923009F407C112962D903C901397EB0141
:100170008A819B811496AD90BD90CD90DC901797AD
:10018000EC80FD800E811F819101281B390BB90184
:1001900037FF04C066277727621B730B6032710537
:1001A0000CF061C0121613066CF537014801062EDB
:1001B00004C096948794779467940A94D2F721E0C8
:1001C00030E040E050E004C0220F331F441F551FB1
:1001D0006A95D2F721503040404050402E213F21B7
:1001E00040235123211531054105510521F021E01E
:1001F00030E040E050E079018A01E628F72808293C
:1002000019293CC0232BD1F1260E371E350146019A
:10021000062E04C096948794779467940A94D2F734
:1002200021E030E040E050E004C0220F331F441FC3
:10023000551F6A95D2F721503040404050402A2146
:100240003B214C215D21211531054105510521F04E
:1002500021E030E040E050E059016A01A628B728CB
:10026000C828D9280BC0821593052CF01C01AA249C
:10027000BB24650103C0EE24FF24870111969C91E5
:10028000D20111968C91981709F445C0992339F041
:10029000A80197012A193B094C095D0906C0A6016E
:1002A00095012E193F09400B510B57FD08C01182D3
:1002B0003382228224833583468357831DC081E0A5
:1002C00081833382228288279927DC01821B930B4A
:1002D000A40BB50B84839583A683B7830DC0220F2F
:1002E000331F441F551F24833583468357838281E0
:1002F000938101979383828324813581468157813D
:10030000DA01C9010197A109B1098F5F9F4FAF4F72
:10031000BF4328F30BC0918333822282EA0CFB1C7B
:100320000C1D1D1DE482F5820683178383E0808304
:10033000248135814681578157FF1AC0C901AA27F8
:1003400097FDA095BA2F81709070A070B0705695EF
:10035000479537952795822B932BA42BB52B848318
:100360009583A683B7838281938101969383828349
:10037000DF0101C0D201CD01CDB7DEB7E2E10C94BF
:10038000F417A0E2B0E0E7ECF1E00C94E417698325
:100390007A838B839C832D833E834F835887E9E048
:1003A000EE2EF12CEC0EFD1ECE010196B7010E943F
:1003B000D4068E010F5E1F4FCE010596B8010E9434
:1003C000D4068A8991E089278A8BC701B801AE01DA
:1003D000475E5F4F0E9475000E94FF05A096E6E011
:1003E0000C940018A0E2B0E0E8EFF1E00C94E41700
:1003F00069837A838B839C832D833E834F835887C5
:10040000F9E0EF2EF12CEC0EFD1ECE010196B701A6
:100410000E94D4068E010F5E1F4FCE010596B801D3
:100420000E94D406C701B801AE01475E5F4F0E942B
:1004300075000E94FF05A096E6E00C940018A0E26B
:10044000B0E0E5E2F2E00C94D81769837A838B83FD
:100450009C832D833E834F835887CE010196BE0136
:10046000675F7F4F0E94D406CE010596BE016F5E86
:100470007F4F0E94D4069985923088F08989823016
:10048000C8F0943019F4823051F404C0843029F457
:10049000923081F480E690E0C6C0923049F420E0CA
:1004A0009A858A89981321E02A87CE010996BBC0D4
:1004B000823049F420E09A858A89981321E02A8BBA
:1004C000CE014196B0C02D843E844F8458886D88FB
:1004D0007E888F88988CEE24FF248701AA24BB2471
:1004E000650140E050E060E070E0E0E0F0E0C10174
:1004F00081709070892BE9F0E60CF71C081D191D1E
:100500009A01AB012A0D3B1D4C1D5D1D80E090E062
:10051000A0E0B0E0E614F7040805190520F481E036
:1005200090E0A0E0B0E0BA01A901480F591F6A1F8E
:100530007B1FAA0CBB1CCC1CDD1C97FE08C081E0F5
:1005400090E0A0E0B0E0A82AB92ACA2ADB2A3196B6
:10055000E032F10549F0660C771C881C991C569412
:10056000479437942794C3CFFA85EA892B893C892D
:100570008B859C85280F391F2E5F3F4F17C0CA01FE
:1005800081709070892B61F016950795F794E79428
:1005900080E090E0A0E0B0E8E82AF92A0A2B1B2BC3
:1005A00076956795579547952F5F3F4F77FDE7CF36
:1005B0000CC0440F551F661F771F17FD4160EE0CDE
:1005C000FF1C001F111F21503040403090E05907A0
:1005D00090E0690790E4790760F32B8F3C8FDB0193
:1005E000CA018F779070A070B07080349105A1051A
:1005F000B10561F447FD0AC0E114F10401051105DC
:1006000029F0405C5F4F6F4F7F4F40781A8EFE1786
:1006100011F081E08A8F4D8F5E8F6F8F78A383E01A
:10062000898FCE0149960E94FF05A096E2E10C94C5
:10063000F417A8E1B0E0EFE1F3E00C94E017698370
:100640007A838B839C832D833E834F835887B9E0C5
:10065000EB2EF12CEC0EFD1ECE010196B7010E948F
:10066000D4068E010F5E1F4FCE010596B8010E9481
:10067000D4062985223008F47EC03989323010F43E
:10068000B8017CC08A859A8989278A87243011F02D
:10069000223031F4231709F06EC060E670E06EC0BE
:1006A000343039F41D861E861F86188A1C861B86E8
:1006B00004C0323021F484E08987B7015FC02B8504
:1006C0003C858B899C89281B390B3C872B87ED84C3
:1006D000FE840F851889AD88BE88CF88D88CEA142F
:1006E000FB040C051D0540F4EE0CFF1C001F111F40
:1006F000215030403C872B8720E030E040E050E044
:1007000080E090E0A0E0B0E460E070E0EA14FB0478
:100710000C051D0540F0282B392B4A2B5B2BEA18C2
:10072000FB080C091D09B695A79597958795EE0CC2
:10073000FF1C001F111F6F5F7F4F6F31710531F775
:10074000DA01C9018F779070A070B0708034910584
:10075000A105B10561F427FD0AC0E114F10401050A
:10076000110529F0205C3F4F4F4F5F4F20782D87B8
:100770003E874F87588BBE01675F7F4FCB010E943A
:10078000FF056896EAE00C94FC17A8E1B0E0EBECFA
:10079000F3E00C94E41769837A838B839C832D8325
:1007A0003E834F83588789E0E82EF12CEC0EFD1E26
:1007B000CE010196B7010E94D4068E010F5E1F4F35
:1007C000CE010596B8010E94D4068985823040F09A
:1007D0008989823028F0C701B8010E944C0701C006
:1007E00081E06896E6E00C940018A8E1B0E0EBEF39
:1007F000F3E00C94E41769837A838B839C832D83C5
:100800003E834F83588789E0E82EF12CEC0EFD1EC5
:10081000CE010196B7010E94D4068E010F5E1F4FD4
:10082000CE010596B8010E94D4068985823040F039
:100830008989823028F0C701B8010E944C0701C0A5
:100840008FEF6896E6E00C940018A8E1B0E0EBE2C8
:10085000F4E00C94E41769837A838B839C832D8363
:100860003E834F83588789E0E82EF12CEC0EFD1E65
:10087000CE010196B7010E94D4068E010F5E1F4F74
:10088000CE010596B8010E94D4068985823040F0D9
:100890008989823028F0C701B8010E944C0701C045
:1008A0008FEF6896E6E00C940018A8E1B0E0EBE565
:1008B000F4E00C94E41769837A838B839C832D8303
:1008C0003E834F83588789E0E82EF12CEC0EFD1E05
:1008D000CE010196B7010E94D4068E010F5E1F4F14
:1008E000CE010596B8010E94D4068985823040F079
:1008F0008989823028F0C701B8010E944C0701C0E5
:1009000081E06896E6E00C940018A8E0B0E0EBE81F
:10091000F4E00C94E1179B01AC0183E08983DA01D8
:10092000C9018827B7FD83959927AA27BB27B82E29
:10093000211531054105510519F482E089833AC03A
:100940008823A9F0203080E0380780E0480780E85D
:10095000580729F460E070E080E09FEC30C0EE249E
:10096000FF248701E21AF30A040B150B02C0790178
:100970008A018EE1C82ED12CDC82CB82ED82FE82F0
:100980000F831887C801B7010E94B0050197181698
:10099000190684F4082E04C0EE0CFF1C001F111F62
:1009A0000A94D2F7ED82FE820F831887C81AD90AFB
:1009B000DC82CB82BA82CE0101960E94FF05289686
:1009C000E9E00C94FD17ACE0B0E0E9EEF4E00C9443
:1009D000E81769837A838B839C83CE010196BE01DD
:1009E0006B5F7F4F0E94D4068D81823061F182302F
:1009F00050F1843021F48E81882351F12EC02F8153
:100A0000388537FD20C06E812F3131051CF06623FB
:100A1000F9F023C08EE190E0821B930B29853A8583
:100A20004B855C8504C056954795379527958A95E3
:100A3000D2F76623B1F050954095309521953F4F00
:100A40004F4F5F4F0EC020E030E040E050E009C063
:100A50002FEF3FEF4FEF5FE704C020E030E040E0D2
:100A600050E8B901CA012C96E2E00C940418A8E001
:100A7000B0E0EDE3F5E00C94E0177B018C0161152B
:100A800071058105910519F482E0898360C083E0D6
:100A900089838EE1C82ED12CDC82CB82ED82FE824E
:100AA0000F831887C801B7010E94B005FC01319778
:100AB000F7FF3BC0222733272E1B3F0B570168014E
:100AC000022E04C0D694C794B794A7940A94D2F780
:100AD00040E050E060E070E081E090E0A0E0B0E055
:100AE00004C0880F991FAA1FBB1F2A95D2F7019730
:100AF000A109B1098E219F21A023B1230097A1054F
:100B0000B10521F041E050E060E070E04A295B2946
:100B10006C297D294D835E836F8378878EE190E019
:100B20008E1B9F0B9C838B8312C0309781F00E2EFF
:100B300004C0EE0CFF1C001F111F0A94D2F7ED82B7
:100B4000FE820F831887CE1ADF0ADC82CB821A82DC
:100B5000CE0101960E94FF052896EAE00C94FC174E
:100B6000EF92FF920F931F937B018C0180E0E816B8
:100B700080E0F80681E0080780E0180788F48FEF2E
:100B8000E816F1040105110531F028F088E090E045
:100B9000A0E0B0E017C080E090E0A0E0B0E012C0BC
:100BA00080E0E81680E0F80680E0080781E018079A
:100BB00028F088E190E0A0E0B0E004C080E190E09F
:100BC000A0E0B0E020E230E040E050E0281B390B2C
:100BD0004A0B5B0B04C016950795F794E7948A952A
:100BE000D2F7F701E859FF4F8081281B31094109ED
:100BF0005109C9011F910F91FF90EF900895DF9265
:100C0000EF92FF920F931F93FC01E480F580068121
:100C10001781D1808081823048F480E090E0A0E1AB
:100C2000B0E0E82AF92A0A2B1B2BA5C0843009F46E
:100C30009FC0823021F4EE24FF24870105C0E11417
:100C4000F1040105110519F4E0E0F0E096C06281BD
:100C500073819FEF623879070CF05BC022E83FEFA9
:100C6000261B370B2A3131052CF020E030E040E024
:100C700050E02AC0B801A701022E04C076956795FE
:100C8000579547950A94D2F781E090E0A0E0B0E054
:100C900004C0880F991FAA1FBB1F2A95D2F701977E
:100CA000A109B1098E219F21A023B1230097A1059D
:100CB000B10521F081E090E0A0E0B0E09A01AB0145
:100CC000282B392B4A2B5B2BDA01C9018F779070C7
:100CD000A070B07080349105A105B10539F427FFEB
:100CE00009C0205C3F4F4F4F5F4F04C0215C3F4F16
:100CF0004F4F5F4FE0E0F0E02030A0E03A07A0E087
:100D00004A07A0E45A0710F0E1E0F0E079018A0117
:100D100027C06038710564F5FB01E158FF4FD80129
:100D2000C7018F779070A070B07080349105A105D5
:100D3000B10539F4E7FE0DC080E490E0A0E0B0E03A
:100D400004C08FE390E0A0E0B0E0E80EF91E0A1FB7
:100D50001B1F17FF05C016950795F794E79431966A
:100D600087E016950795F794E7948A95D1F705C023
:100D7000EE24FF248701EFEFF0E06E2F67956627E2
:100D80006795902F9F77D794DD24D7948E2F8695E3
:100D9000492F462B582F5D29B701CA011F910F918A
:100DA000FF90EF90DF900895FC01DB0140815181BD
:100DB0002281622F6F7770E0221F2227221F9381EA
:100DC000892F880F822B282F30E0991F9927991F90
:100DD00011969C93119721153105A9F541155105DF
:100DE0006105710511F482E037C082E89FEF139628
:100DF0009C938E9312979A01AB0167E0220F331FE9
:100E0000441F551F6A95D1F783E08C930DC0220FC4
:100E1000331F441F551F12968D919C911397019774
:100E200013969C938E931297203080E0380780E0D1
:100E3000480780E4580758F314962D933D934D933B
:100E40005C93179708952F3F310579F441155105AB
:100E50006105710519F484E08C93089564FF03C063
:100E600081E08C9312C01C9210C02F573040139613
:100E70003C932E93129783E08C9387E0440F551F89
:100E8000661F771F8A95D1F7706414964D935D9312
:100E90006D937C93179708951F93DC01FB019C9140
:100EA000923008F447C08081823008F443C0943007
:100EB00051F411961C91843099F58181682F70E06E
:100EC000611B71093FC0843021F0923031F48230CF
:100ED000B9F18181882389F12DC011961C91119758
:100EE0008230F1F081811817D9F412962D913C913E
:100EF0001397828193818217930794F028173907FB
:100F0000BCF014968D919D910D90BC91A02D2481E3
:100F1000358146815781281739074A075B0718F43E
:100F2000112341F00AC082179307A407B50740F4C4
:100F3000112319F061E070E005C06FEF7FEF02C090
:100F400060E070E0CB011F910895DF93CF930F9283
:100F5000CDB7DEB78983A6E5B0E0E6E5F0E08081B5
:100F600080648C93A0E2B0E0E0E2F0E080818E7FCC
:100F70008C93A0E2B0E0E0E2F0E080818D7F8C9382
:100F8000E0E2F0E08FED8083A2E2B0E0E2E2F0E0A8
:100F900080818E7F8C93A2E2B0E0E2E2F0E080817B
:100FA000282F8981882F90E0880F991F822B8C939E
:100FB0008981882329F0E2E2F0E08981880F80832B
:100FC000A6E5B0E0E6E5F0E0808180688C93A6E5D8
:100FD000B0E0E6E5F0E0808184608C9381E00F90E2
:100FE000CF91DF910895DF93CF93CDB7DEB7A6E51C
:100FF000B0E0E6E5F0E08081846A8C93A6E5B0E09D
:10100000E6E5F0E0808180688C93E6E5F0E08081A1
:101010008823DCF7CF91DF910895DF93CF93CDB78D
:10102000DEB7A6E5B0E0E6E5F0E08081846A8C9367
:10103000E6E5F0E080818823DCF7CF91DF91089529
:10104000DF93CF9300D00F92CDB7DEB789836A8349
:10105000E3E2F0E08981882F90E0880F991F982FB4
:101060008A81892B8083A6E5B0E0E6E5F0E0808107
:101070008F7D8C93A6E5B0E0E6E5F0E080818068A6
:101080008C93E6E5F0E080818823DCF78A81882371
:1010900009F08A810F900F900F90CF91DF91089502
:1010A000DF93CF930F92CDB7DEB78983E3E2F0E011
:1010B00089818083A6E5B0E0E6E5F0E08081806884
:1010C0008C93E6E5F0E080818823DCF70F90CF91E8
:1010D000DF910895DF93CF9300D000D00F92CDB76A
:1010E000DEB79A8389836B838B81282F30E03D8321
:1010F0002C838C819D81009769F02C813D8121306A
:10110000310579F4A6E5B0E0E6E5F0E08081806C99
:101110008C9307C0A6E5B0E0E6E5F0E0808180684A
:101120008C93E6E5F0E080818823DCF7E1E2F0E0F3
:101130008081882F90E0887F90708035910531F410
:10114000E3E2F0E08081E981FA8180830F900F90E3
:101150000F900F900F90CF91DF910895DF93CF9371
:101160000F92CDB7DEB7A6E5B0E0E6E5F0E080810E
:1011700080648C93A6E5B0E0E6E5F0E080818068CD
:101180008C93E6E5F0E080818823DCF70F90CF9127
:10119000DF910895DF93CF930F92CDB7DEB7A6E529
:1011A000B0E0E6E5F0E0808180618C93A6E5B0E0F8
:1011B000E6E5F0E0808180688C930F90CF91DF911D
:1011C0000895DF93CF93CDB7DEB7A3E5B0E0E3E5B5
:1011D000F0E0808181608C9381E0CF91DF91089570
:1011E000DF93CF9300D0CDB7DEB78983E2E5F0E09F
:1011F000898180830F900F90CF91DF910895DF93C5
:10120000CF9300D0CDB7DEB78983ECE5F0E08981DC
:1012100080830F900F90CF91DF910895DF93CF934C
:10122000CDB7DEB72D970FB6F894DEBF0FBECDBF9A
:101230009C878B878DEB97E3A6E8B9E38F8398872C
:10124000A987BA878B859C85AA2797FDA095BA2F79
:10125000BC01CD010E948504DC01CB01BC01CD01A4
:101260002F81388549855A850E941903DC01CB01FD
:101270008B839C83AD83BE836B817C818D819E81BA
:101280000E94E304DC01CB01AA2797FDA095BA2FA9
:1012900080936C0190936D01A0936E01B0936F01E8
:1012A0006B817C818D819E810E94E304DC01CB01F6
:1012B000AA2797FDA095BA2FBC01CD010E948504F5
:1012C0009B01AC016B817C818D819E810E94C1015B
:1012D000DC01CB01BC01CD0120E030E040E050E07A
:1012E0000E94C503882309F45CC06B817C818D81D9
:1012F0009E810E94E304DC01CB01AA2797FDA09503
:10130000BA2FBC01CD010E9485049B01AC016B8109
:101310007C818D819E810E94C101DC01CB01BC01D9
:10132000CD0120E030E040E853EC0E941F02DC01D8
:10133000CB01BC01CD0120E030E040E853E40E9445
:10134000F201DC01CB01BC01CD010E94E304DC0110
:10135000CB019A8389838B819C81AD81BE81BC0145
:10136000CD010E940F18DC01CB01BC01CD0120E0B2
:1013700030E040E85FE30E94F201DC01CB01BC01F8
:10138000CD010E944900DC01CB0180936C01909358
:101390006D01A0936E01B0936F01E2E5F0E08981E9
:1013A00080832D960FB6F894DEBF0FBECDBFCF91D0
:1013B000DF910895DF93CF9300D00F92CDB7DEB7C2
:1013C0009A8389830F900F900F90CF91DF910895AA
:1013D000EF92FF920F931F93DF93CF93CDB7DEB7BA
:1013E00061970FB6F894DEBF0FBECDBF988B8F8785
:1013F0008DEB97E3A6E8B5E38B879C87AD87BE8727
:101400006B857C858D859E8520E030E040E853E447
:101410000E941F02DC01CB018F839887A987BA87BE
:101420008F859889AA2797FDA095BA2FBC01CD0179
:101430000E948504DC01CB01BC01CD012F813885E0
:1014400049855A850E9455048823A4F581E08E833E
:101450008F859889AA2797FDA095BA2FBC01CD0149
:101460000E948504DC01CB01BC01CD012F813885B0
:1014700049855A850E941903DC01CB01BC01CD01CD
:1014800020E030E040E853EC0E941F02DC01CB0179
:10149000BC01CD0120E030E040E853E40E94F201BD
:1014A000DC01CB01BC01CD010E944900DC01CB0174
:1014B0008D839CC06F81788589859A850E94E3041D
:1014C000DC01CB019C018F8598892817390721F40D
:1014D00081E08E831D828AC08F859889AA2797FD17
:1014E000A095BA2FBC01CD010E948504DC01CB017F
:1014F000BC01CD012F81388549855A850E94190389
:10150000DC01CB01BC01CD010E940F18DC01CB0135
:10151000BC01CD010E944900DC01CB018E838F8587
:101520009889AA2797FDA095BA2FBC01CD010E94EA
:101530008504DC01CB01BC01CD012F8138854985B3
:101540005A850E941903DC01CB017C018D018F8536
:101550009889AA2797FDA095BA2FBC01CD010E94BA
:101560008504DC01CB01BC01CD010E94E304DC0158
:10157000CB01AA2797FDA095BA2FBC01CD010E94EF
:101580008504DC01CB01BC01CD012F813885498563
:101590005A850E941903DC01CB019C01AD01C801F1
:1015A000B7010E94C101DC01CB0189839A83AB831F
:1015B000BC8369817A818B819C8120E030E040E8A6
:1015C00053EC0E941F02DC01CB01BC01CD0120E0E5
:1015D00030E040E853E40E94F201DC01CB01BC01A1
:1015E000CD010E944900DC01CB018D83E2E5F0E0F2
:1015F0001082E2E5F0E08D81808313C0E8E5F0E041
:101600008081882F90E0817090700097B9F38E816F
:1016100081508E83A8E5B0E0E8E5F0E0808181604C
:101620008C938E81882351F761960FB6F894DEBFB4
:101630000FBECDBFCF91DF911F910F91FF90EF9023
:101640000895DF93CF93CDB7DEB7A9E5B0E0E9E524
:10165000F0E0808182608C93A9E5B0E0E9E5F0E0FC
:1016600080818E7F8C93CF91DF910895DF93CF930C
:101670000F92CDB7DEB7A9E5B0E0E9E5F0E08081F3
:1016800081608C93A9E5B0E0E9E5F0E080818D7F91
:101690008C930F90CF91DF910895DF93CF93CDB7C7
:1016A000DEB7AFE5B0E0EFE5F0E0808180688C93D5
:1016B000CF91DF910895DF93CF93CDB7DEB7AFE53C
:1016C000B0E0EFE5F0E080818F778C93CF91DF91F0
:1016D0000895DF93CF93CDB7DEB7A3E5B0E0E3E5A0
:1016E000F0E080818E7F8C93A3E5B0E0E3E5F0E04D
:1016F00080818D7F8C93A3E5B0E0E3E5F0E080810D
:101700008B7F8C93CF91DF910895DF93CF9300D09F
:10171000CDB7DEB79A83898389819A81009731F0AA
:1017200089819A8190937101809370010F900F903D
:10173000CF91DF910895DF93CF9300D0CDB7DEB77F
:101740009A83898389819A81009731F089819A816E
:1017500090937301809372010F900F90CF91DF915E
:1017600008951F920F920FB60F9211242F933F935B
:101770004F935F936F937F938F939F93AF93BF9399
:10178000EF93FF93DF93CF93CDB7DEB780917401D2
:1017900090917501A0917601B09177010196A11DFC
:1017A000B11D8093740190937501A0937601B0935D
:1017B00077018091740190917501A0917601B091AB
:1017C000770180322EE4920720E0A20720E0B207E2
:1017D000B1F40E94690BE0917001F09171010995DB
:1017E000A1E3B0E0E1E3F0E0808180688C931092A7
:1017F0007401109275011092760110927701CF91C9
:10180000DF91FF91EF91BF91AF919F918F917F9168
:101810006F915F914F913F912F910F900FBE0F905D
:101820001F9018951F920F920FB60F9211242F93AD
:101830008F939F93AF93BF93DF93CF93CDB7DEB7D3
:101840008091780190917901A0917A01B0917B010A
:101850000196A11DB11D8093780190937901A09309
:101860007A01B0937B018091780190917901A091E8
:101870007A01B0917B01803921E0920720E0A20734
:1018800020E0B20741F41092780110927901109291
:101890007A0110927B01CF91DF91BF91AF919F911F
:1018A0008F912F910F900FBE0F901F901895DF937F
:1018B000CF930F92CDB7DEB7EAE3F0E089E0808303
:1018C000E7E3F0E01082E4E3F0E01082E1E3F0E02F
:1018D00010820F90CF91DF910895DF93CF9300D0C6
:1018E00000D00F92CDB7DEB789836A838981282F14
:1018F00030E03C832B838B819C8181309105D1F03A
:101900002B813C81223031052CF48B819C81009706
:1019100061F01EC02B813C812230310581F08B812A
:101920009C818330910581F013C0EAE3F0E08A8165
:1019300080830EC0E7E3F0E08A81808309C0E4E39E
:10194000F0E08A81808304C0E1E3F0E08A81808353
:101950000F900F900F900F900F90CF91DF910895FF
:10196000DF93CF9300D000D00F92CDB7DEB789833D
:101970006A838981282F30E03C832B838B819C8173
:1019800081309105D1F02B813C81223031052CF43E
:101990008B819C81009761F01EC02B813C8122309D
:1019A000310581F08B819C818330910581F013C0DA
:1019B000EBE3F0E08A8180830EC0E8E3F0E08A8107
:1019C000808309C0E5E3F0E08A81808304C0E2E31C
:1019D000F0E08A8180830F900F900F900F900F900E
:1019E000CF91DF910895DF93CF9300D000D0CDB792
:1019F000DEB789838981282F30E03B832A838A815F
:101A00009B8181309105E9F02A813B8122303105AB
:101A10002CF48A819B81009761F02AC02A813B8146
:101A200022303105B1F08A819B8183309105C9F064
:101A30001FC0ABE3B0E0EBE3F0E0808180958C93D6
:101A400017C0A8E3B0E0E8E3F0E0808180958C93D4
:101A50000FC0A5E3B0E0E5E3F0E0808180958C93D2
:101A600007C0A2E3B0E0E2E3F0E0808180958C93D0
:101A70000F900F900F900F90CF91DF910895DF930B
:101A8000CF9300D000D000D0CDB7DEB789836A8372
:101A90004B838A81883008F0CAC08B81823008F07D
:101AA000C6C08981282F30E03D832C836C817D81E5
:101AB0006130710509F441C08C819D8182309105AE
:101AC00034F42C813D812115310571F0B0C06C8159
:101AD0007D816230710509F459C08C819D8183300C
:101AE000910509F47CC0A3C0AAE3B0E0EAE3F0E00A
:101AF0008081482F8A81282F30E081E090E002C069
:101B0000880F991F2A95E2F7809584238C93AAE386
:101B1000B0E0EAE3F0E08081482F8B81282F30E0AD
:101B20008A81882F90E0B90102C0660F771F8A95DD
:101B3000E2F7CB01842B8C937AC0A7E3B0E0E7E314
:101B4000F0E08081482F8A81282F30E081E090E00A
:101B500002C0880F991F2A95E2F7809584238C9301
:101B6000A7E3B0E0E7E3F0E08081482F8B81282FE6
:101B700030E08A81882F90E0B90102C0660F771F9C
:101B80008A95E2F7CB01842B8C9351C0A4E3B0E09B
:101B9000E4E3F0E08081482F8A81282F30E081E063
:101BA00090E002C0880F991F2A95E2F78095842360
:101BB0008C93A4E3B0E0E4E3F0E08081482F8B81D4
:101BC000282F30E08A81882F90E0B90102C0660F8B
:101BD000771F8A95E2F7CB01842B8C9328C0A1E371
:101BE000B0E0E1E3F0E08081482F8A81282F30E0E7
:101BF00081E090E002C0880F991F2A95E2F7809556
:101C000084238C93A1E3B0E0E1E3F0E08081482FEE
:101C10008B81282F30E08A81882F90E0B90102C0A3
:101C2000660F771F8A95E2F7CB01842B8C9326965B
:101C30000FB6F894DEBF0FBECDBFCF91DF910895F0
:101C4000DF93CF9300D000D000D0CDB7DEB789832B
:101C50006A834B838A81883008F0CAC08B818230C6
:101C600008F0C6C08981282F30E03D832C836C8129
:101C70007D816130710509F441C08C819D81823084
:101C8000910534F42C813D812115310571F0B0C0EE
:101C90006C817D816230710509F459C08C819D8110
:101CA0008330910509F47CC0A3C0ABE3B0E0EBE363
:101CB000F0E08081482F8A81282F30E081E090E099
:101CC00002C0880F991F2A95E2F7809584238C9390
:101CD000ABE3B0E0EBE3F0E08081482F8B81282F6D
:101CE00030E08A81882F90E0B90102C0660F771F2B
:101CF0008A95E2F7CB01842B8C937AC0A8E3B0E0FD
:101D0000E8E3F0E08081482F8A81282F30E081E0ED
:101D100090E002C0880F991F2A95E2F780958423EE
:101D20008C93A8E3B0E0E8E3F0E08081482F8B815A
:101D3000282F30E08A81882F90E0B90102C0660F19
:101D4000771F8A95E2F7CB01842B8C9351C0A5E3D2
:101D5000B0E0E5E3F0E08081482F8A81282F30E071
:101D600081E090E002C0880F991F2A95E2F78095E4
:101D700084238C93A5E3B0E0E5E3F0E08081482F75
:101D80008B81282F30E08A81882F90E0B90102C032
:101D9000660F771F8A95E2F7CB01842B8C9328C0BE
:101DA000A2E3B0E0E2E3F0E08081482F8A81282FAF
:101DB00030E081E090E002C0880F991F2A95E2F799
:101DC000809584238C93A2E3B0E0E2E3F0E080818D
:101DD000482F8B81282F30E08A81882F90E0B9012D
:101DE00002C0660F771F8A95E2F7CB01842B8C9394
:101DF00026960FB6F894DEBF0FBECDBFCF91DF9110
:101E00000895DF93CF9300D000D00F92CDB7DEB707
:101E100089836A838981282F30E03C832B838B81DF
:101E20009C818130910549F12B813C812230310523
:101E30002CF48B819C81009761F05AC02B813C81EE
:101E40002230310571F18B819C8183309105E9F15C
:101E50004FC0ABE3B0E0EBE3F0E08081482F8A8134
:101E6000282F30E081E090E0022E02C0880F991FF9
:101E70000A94E2F784278C933BC0A8E3B0E0E8E340
:101E8000F0E08081482F8A81282F30E081E090E0C7
:101E9000022E02C0880F991F0A94E2F784278C93C0
:101EA00027C0A5E3B0E0E5E3F0E08081482F8A8118
:101EB000282F30E081E090E0022E02C0880F991FA9
:101EC0000A94E2F784278C9313C0A2E3B0E0E2E324
:101ED000F0E08081482F8A81282F30E081E090E077
:101EE000022E02C0880F991F0A94E2F784278C9370
:101EF0000F900F900F900F900F90CF91DF9108955A
:101F0000DF93CF9300D000D000D0CDB7DEB7898368
:101F10007B836A838981282F30E03D832C838C81E9
:101F20009D8181309105E1F02C813D812230310588
:101F30002CF48C819D81009761F026C02C813D811D
:101F400022303105A1F08C819D8183309105B1F063
:101F50001BC0E9E3F0E08081EA81FB81808314C04B
:101F6000E6E3F0E08081EA81FB8180830DC0E3E35A
:101F7000F0E08081EA81FB81808306C0E0E3F0E04D
:101F80008081EA81FB81808326960FB6F894DEBFBC
:101F90000FBECDBFCF91DF910895DF93CF93CDB723
:101FA000DEB727970FB6F894DEBF0FBECDBF89838B
:101FB0006A835C834B838981282F30E03E832D83A5
:101FC0004D815E814130510559F18D819E81823074
:101FD000910534F42D813E812115310569F05BC0F6
:101FE0004D815E814230510579F18D819E81833032
:101FF000910509F43DC04FC0E9E3F0E08081282F4E
:1020000030E08A81882F90E0A90102C0559547955C
:102010008A95E2F7CA018170EB81FC8180833BC025
:10202000E6E3F0E08081282F30E08A81882F90E07D
:10203000A90102C0559547958A95E2F7CA018170BA
:10204000EB81FC81808327C0E3E3F0E08081282FCF
:1020500030E08A81882F90E0A90102C0559547950C
:102060008A95E2F7CA018170EB81FC81808313C0FD
:10207000E0E3F0E08081282F30E08A81882F90E033
:10208000A90102C0559547958A95E2F7CA0181706A
:10209000EB81FC81808327960FB6F894DEBF0FBEDC
:1020A000CDBFCF91DF910895DF93CF93CDB7DEB74A
:1020B000A7E2B0E0E7E2F0E0808180648C93A7E2E1
:1020C000B0E0E7E2F0E0808180688C93A7E2B0E0C6
:1020D000E7E2F0E0808181608C93A7E2B0E0E7E284
:1020E000F0E0808182608C93A6E2B0E0E6E2F0E06E
:1020F000808180688C93A6E2B0E0E6E2F0E0808127
:1021000080628C93A6E2B0E0E6E2F0E08081846039
:102110008C93A6E2B0E0E6E2F0E0808182608C93EE
:10212000CF91DF910895DF93CF9300D0CDB7DEB785
:102130009A838983A6E2B0E0E6E2F0E080818064E1
:102140008C93E6E2F0E0808182958F70882F90E09A
:10215000817090700097A9F3A6E2B0E0E6E2F0E0AB
:10216000808180618C93E4E2F0E08081882F90E0B0
:10217000E981FA8191838083E981FA81208131812B
:10218000E5E2F0E08081882F90E0982F8827822B6D
:10219000932BE981FA81918380830F900F90CF91E7
:1021A000DF910895DF93CF930F92CDB7DEB780E034
:1021B00060E040E00E943F0D80E060E041E00E946E
:1021C000200E80E061E040E00E943F0D80E061E091
:1021D00041E00E94200E80E062E040E00E943F0D5E
:1021E00080E062E041E00E94200E0F90CF91DF91ED
:1021F0000895DF93CF9300D000D000D0CDB7DEB7E5
:102200008A836B835D834C832C813D818A816B81C2
:10221000A9010E94CD0F8A816B819E012F5F3F4FE4
:10222000A9010E94CD0F08C08A816B819E012F5F9A
:102230003F4FA9010E94CD0F89818823A9F32696DB
:102240000FB6F894DEBF0FBECDBFCF91DF910895DA
:10225000DF93CF93CDB7DEB76D970FB6F894DEBF9F
:102260000FBECDBF8D8FE7E3F0E08FE08083AAE360
:10227000B0E0EAE3F0E0808180638C93EBE3F0E090
:1022800087E18083A8E3B0E0E8E3F0E08081282FD5
:10229000207F8D8D9AE0692F0E94CC178F70822B42
:1022A0008C9380E090E0A0E4B0E4898F9A8FAB8FAC
:1022B000BC8F698D7A8D8B8D9C8D20E030E04AE754
:1022C00053E40E941F02DC01CB018D8B9E8BAF8BF0
:1022D000B88F6D897E898F89988D20E030E040E845
:1022E0005FE30E94550488232CF481E090E09C8BEE
:1022F0008B8B3FC06D897E898F89988D20E03FEF61
:102300004FE757E40E94F50318164CF5698D7A8D56
:102310008B8D9C8D20E030E040E251E40E941F0252
:10232000DC01CB01BC01CD010E944900DC01CB01E5
:102330009C8B8B8B0FC089E190E09A8B898B89896C
:102340009A890197F1F79A8B898B8B899C890197E0
:102350009C8B8B8B8B899C89009769F714C06D8946
:102360007E898F89988D0E944900DC01CB019C8B6E
:102370008B8B8B899C89988B8F878F859889019708
:10238000F1F7988B8F87EBE3F0E087E28083A8E397
:10239000B0E0E8E3F0E08081282F207F8D8D9AE087
:1023A000692F0E94CC17892F8F70822B8C9380E02D
:1023B00090E0A0E4B0E48B879C87AD87BE876B85F7
:1023C0007C858D859E8520E030E04AE753E40E94BD
:1023D0001F02DC01CB018F839887A987BA876F81A1
:1023E000788589859A8520E030E040E85FE30E94A7
:1023F000550488232CF481E090E09E838D833FC0B8
:102400006F81788589859A8520E03FEF4FE757E413
:102410000E94F50318164CF56B857C858D859E858D
:1024200020E030E040E251E40E941F02DC01CB01D9
:10243000BC01CD010E944900DC01CB019E838D834C
:102440000FC089E190E09C838B838B819C810197F5
:10245000F1F79C838B838D819E8101979E838D8371
:102460008D819E81009769F714C06F817885898579
:102470009A850E944900DC01CB019E838D838D816A
:102480009E819A83898389819A810197F1F79A8342
:1024900089836D960FB6F894DEBF0FBECDBFCF9186
:1024A000DF910895DF93CF93CDB7DEB7AB970FB62B
:1024B000F894DEBF0FBECDBF8BA7E7E3F0E08FE05F
:1024C0008083AAE3B0E0EAE3F0E0808180638C934C
:1024D000EBE3F0E087E18083A8E3B0E0E8E3F0E03D
:1024E0008081282F207F8BA59AE0692F0E94CC172E
:1024F0008F70822B8C9380E090E0A0E4B0E48FA3F7
:1025000098A7A9A7BAA76FA178A589A59AA520E041
:1025100030E04AE753E40E941F02DC01CB018BA3A9
:102520009CA3ADA3BEA36BA17CA18DA19EA120E025
:1025300030E040E85FE30E94550488232CF481E0FA
:1025400090E09AA389A33FC06BA17CA18DA19EA11D
:1025500020E03FEF4FE757E40E94F50318164CF5D3
:102560006FA178A589A59AA520E030E040E251E46A
:102570000E941F02DC01CB01BC01CD010E94490079
:10258000DC01CB019AA389A30FC089E190E098A355
:102590008F8F8F8D98A10197F1F798A38F8F89A1C5
:1025A0009AA101979AA389A389A19AA1009769F793
:1025B00014C06BA17CA18DA19EA10E944900DC01E9
:1025C000CB019AA389A389A19AA19E8F8D8F8D8D0E
:1025D0009E8D0197F1F79E8F8D8FEBE3F0E087E200
:1025E0008083A8E3B0E0E8E3F0E08081282F207F3B
:1025F0008BA59AE0692F0E94CC17892F8F70822BB0
:102600008C9380E090E0A0E4B0E4898F9A8FAB8F48
:10261000BC8F698D7A8D8B8D9C8D20E030E04AE7F0
:1026200053E40E941F02DC01CB018D8B9E8BAF8B8C
:10263000B88F6D897E898F89988D20E030E040E8E1
:102640005FE30E94550488232CF481E090E09C8B8A
:102650008B8B3FC06D897E898F89988D20E03FEFFD
:102660004FE757E40E94F50318164CF5698D7A8DF3
:102670008B8D9C8D20E030E040E251E40E941F02EF
:10268000DC01CB01BC01CD010E944900DC01CB0182
:102690009C8B8B8B0FC089E190E09A8B898B898909
:1026A0009A890197F1F79A8B898B8B899C8901977D
:1026B0009C8B8B8B8B899C89009769F714C06D89E3
:1026C0007E898F89988D0E944900DC01CB019C8B0B
:1026D0008B8B8B899C89988B8F878F8598890197A5
:1026E000F1F7988B8F87EBE3F0E087EC808380E055
:1026F00090E0A8E4B3E48B879C87AD87BE876B85A9
:102700007C858D859E8520E030E04AE753E40E9479
:102710001F02DC01CB018F839887A987BA876F815D
:10272000788589859A8520E030E040E85FE30E9463
:10273000550488232CF481E090E09E838D833FC074
:102740006F81788589859A8520E03FEF4FE757E4D0
:102750000E94F50318164CF56B857C858D859E854A
:1027600020E030E040E251E40E941F02DC01CB0196
:10277000BC01CD010E944900DC01CB019E838D8309
:102780000FC089E190E09C838B838B819C810197B2
:10279000F1F79C838B838D819E8101979E838D832E
:1027A0008D819E81009769F714C06F817885898536
:1027B0009A850E944900DC01CB019E838D838D8127
:1027C0009E819A83898389819A810197F1F79A83FF
:1027D0008983AB960FB6F894DEBF0FBECDBFCF9105
:1027E000DF910895DF93CF93CDB7DEB7EBE3F0E051
:1027F00087EC8083CF91DF910895DF93CF930F9281
:10280000CDB7DEB782E062E041E00E943F0D0F905D
:10281000CF91DF910895DF93CF9300D00F92CDB782
:10282000DEB789836A8389816A8141E00E94200E34
:102830000F900F900F90CF91DF910895DF93CF937A
:10284000CDB7DEB761970FB6F894DEBF0FBECDBF30
:102850008F87688B8F85688941E00E94200E80E019
:1028600090E0A8E4B3E48B879C87AD87BE876B8537
:102870007C858D859E8520E030E04AE753E40E9408
:102880001F02DC01CB018F839887A987BA876F81EC
:10289000788589859A8520E030E040E85FE30E94F2
:1028A000550488232CF481E090E09E838D833FC003
:1028B0006F81788589859A8520E03FEF4FE757E45F
:1028C0000E94F50318164CF56B857C858D859E85D9
:1028D00020E030E040E251E40E941F02DC01CB0125
:1028E000BC01CD010E944900DC01CB019E838D8398
:1028F0000FC089E190E09C838B838B819C81019741
:10290000F1F79C838B838D819E8101979E838D83BC
:102910008D819E81009769F714C06F8178858985C4
:102920009A850E944900DC01CB019E838D838D81B5
:102930009E819A83898389819A810197F1F79A838D
:10294000898361960FB6F894DEBF0FBECDBFCF91DD
:10295000DF910895DF93CF9300D00F92CDB7DEB70C
:1029600089836A8389816A8140E00E94200E0F90EA
:102970000F900F90CF91DF910895DF93CF9300D008
:102980000F92CDB7DEB789836A8389816A810E94FD
:10299000010F0F900F900F90CF91DF910895DF936B
:1029A000CF93CDB7DEB7AFE5B0E0EFE5F0E08081E3
:1029B00080688C93CF91DF910895DF93CF93CDB74B
:1029C000DEB7AFE5B0E0EFE5F0E080818F778C9384
:1029D000CF91DF910895DF93CF93CDB7DEB76297A4
:1029E0000FB6F894DEBF0FBECDBF998B888B6A8B74
:1029F00088899989892F992780658F870E94F30795
:102A00008F8560E00E94200888890E9450088A898A
:102A10000E9450080E94CA0880E090E0A0E2B1E461
:102A20008B879C87AD87BE876B857C858D859E85D2
:102A300020E030E04AE753E40E941F02DC01CB01B2
:102A40008F839887A987BA876F81788589859A85CA
:102A500020E030E040E85FE30E94550488232CF436
:102A600081E090E09E838D833FC06F81788589856A
:102A70009A8520E03FEF4FE757E40E94F5031816D0
:102A80004CF56B857C858D859E8520E030E040E2AD
:102A900051E40E941F02DC01CB01BC01CD010E9468
:102AA0004900DC01CB019E838D830FC089E190E05A
:102AB0009C838B838B819C810197F1F79C838B8313
:102AC0008D819E8101979E838D838D819E8100974C
:102AD00069F714C06F81788589859A850E944900BD
:102AE000DC01CB019E838D838D819E819A838983B6
:102AF00089819A810197F1F79A83898362960FB64B
:102B0000F894DEBF0FBECDBFCF91DF910895DF9364
:102B1000CF9300D000D0CDB7DEB79C838B838B8161
:102B20009C81892F9927806589830E94F307898179
:102B300060E00E9420088B810E9450080E940D08CE
:102B4000898161E00E942008CE01029661E00E9426
:102B50006A080E94CA088A810F900F900F900F9008
:102B6000CF91DF910895DF93CF93CDB7DEB782E0A9
:102B700066E041E00E943F0D82E065E041E00E9496
:102B80003F0D82E064E041E00E943F0D83E062E09F
:102B900041E00E943F0D83E061E041E00E943F0D73
:102BA00083E060E041E00E943F0DCF91DF91089506
:102BB000DF93CF93CDB7DEB728970FB6F894DEBF7B
:102BC0000FBECDBF89836A838A81282F30E0388782
:102BD0002F838F819885009731F02F8138852130A0
:102BE000310581F15DC08981282F30E03E832D833E
:102BF0008D819E81009731F02D813E8121303105FC
:102C000089F04EC083E062E041E00E94200E83E044
:102C100060E041E00E94200E83E061E040E00E941D
:102C2000200E3EC083E062E041E00E94200E83E07F
:102C300060E040E00E94200E83E061E041E00E94FD
:102C4000200E2EC08981282F30E03C832B838B817E
:102C50009C81009731F02B813C812130310589F036
:102C60001FC082E066E041E00E94200E82E064E046
:102C700041E00E94200E82E065E040E00E94200ECC
:102C80000FC083E066E041E00E94200E83E064E034
:102C900040E00E94200E83E065E041E00E94200EAB
:102CA00028960FB6F894DEBF0FBECDBFCF91DF914F
:102CB0000895DF93CF9300D00F92CDB7DEB789830D
:102CC0008981282F30E03B832A838A819B8100976A
:102CD00031F02A813B812130310539F00BC083E08E
:102CE00062E040E00E94200E05C082E066E040E025
:102CF0000E94200E0F900F900F90CF91DF910895BA
:102D0000DF93CF93CDB7DEB710927C01CF91DF91E7
:102D10000895DF93CF93CDB7DEB789E691E00E94A7
:102D200093108091690190916A01CC01A0E0B0E01C
:102D3000BC01CD010E943705DC01CB01BC01CD01F6
:102D400020E030E040E85EE30E941F02DC01CB019E
:102D5000BC01CD010E944900DC01CB0190936A01C6
:102D600080936901CF91DF910895DF93CF9300D0D5
:102D70000F92CDB7DEB70E94D21085E00E94A50762
:102D80000E94FD130E94B3150E9454100E94360B3E
:102D900088E290E06CE30E94EB1488E290E00E94ED
:102DA00087158093680180E896E10E94850B0E9458
:102DB000CF1481E0898389E691E00E94931080918D
:102DC000690190916A01CC01A0E0B0E0BC01CD01A5
:102DD0000E943705DC01CB01BC01CD0120E030E0D1
:102DE00040E85EE30E941F02DC01CB01BC01CD0183
:102DF0000E944900DC01CB0190936A018093690134
:102E000080E062E09E012F5F3F4FA9010E94F91010
:102E10008981882329F480917D018F5F80937D01D2
:102E200080917D01813009F0A9C081E08A839E01F3
:102E30002E5F3F4F80E060E0A9010E94F91081E021
:102E40008B839E012D5F3F4F80E061E0A9010E94CE
:102E5000F9108B81882391F480916801843270F09D
:102E60000E94E10885E090E00E940E0980916801CF
:102E700085508093680181E080937C018A8188235A
:102E800091F4809168018B3470F40E94E10885E030
:102E900090E00E940E09809168018B5F8093680129
:102EA00081E080937C0180917C01813029F48091C4
:102EB00068010E94521206C08091690190916A01D6
:102EC0000E94281180916801882F90E005979C014D
:102ED0008091690190916A018217930748F482E01A
:102EE00062E00E941E1480E061E00E94D81514C0C8
:102EF00080916801882F90E005969C01809169017E
:102F000090916A012817390738F482E062E00E9444
:102F1000AA1481E00E94591680916801882F90E0E0
:102F200005969C018091690190916A0128173907E3
:102F300048F482E062E00E940B1480E060E00E94AE
:102F4000D81514C080916801882F90E005979C01E6
:102F50008091690190916A018217930738F482E0A9
:102F600062E00E94AA1480E00E9459162091680134
:102F700088E290E0622F0E94EB141DCF80917D01CA
:102F8000823009F018CF0E94F21382E062E00E94C2
:102F9000AA1410927D010FCF991B79E004C0991FEC
:102FA000961708F0961B881F7A95C9F780950895A3
:102FB0002F923F924F925F926F927F928F929F9249
:102FC000AF92BF92CF92DF92EF92FF920F931F9337
:102FD000CF93DF93CDB7DEB7CA1BDB0B0FB6F894E8
:102FE000DEBF0FBECDBF09942A88398848885F8428
:102FF0006E847D848C849B84AA84B984C884DF8099
:10300000EE80FD800C811B81AA81B981CE0FD11D7C
:103010000FB6F894DEBF0FBECDBFED0108953BD0D3
:1030200080F09F3740F491110EF44DC060E070E0E5
:1030300080E89FE3089526F01B16611D711D811D18
:1030400001C01BC0882371F4772321F09850872B8F
:10305000762F07C0662311F499270DC09051862B57
:1030600070E060E02AF09A95660F771F881FDAF704
:10307000880F9695879597F908959F3F31F0915065
:1030800020F4879577956795B795880F911D96954C
:10309000879597F9089525D0A0F0BEE7B91788F471
:1030A000BB279F3860F41616B11D672F782F88272D
:1030B000985FF7CF869577956795B11D939596396B
:1030C000C8F30895E894BB2766277727CB0197F9C3
:1030D000089557FD9058440F551F59F05F3F71F008
:1030E0004795880F97FB991F61F09F3F79F087956F
:1030F0000895121613061406551FF2CF4695F1DFF8
:1031000008C0161617061806991FF1CF8695710587
:0A311000610508940895F894FFCFBC
:10311A000000000000000000000102020303030394
:10312A00040404040404040405050505050505054D
:10313A00050505050505050506060606060606062D
:10314A000606060606060606060606060606060615
:10315A0006060606060606060707070707070707FD
:10316A0007070707070707070707070707070707E5
:10317A0007070707070707070707070707070707D5
:10318A0007070707070707070707070707070707C5
:10319A0007070707070707070808080808080808AD
:1031AA000808080808080808080808080808080895
:1031BA000808080808080808080808080808080885
:1031CA000808080808080808080808080808080875
:1031DA000808080808080808080808080808080865
:1031EA000808080808080808080808080808080855
:1031FA000808080808080808080808080808080845
:10320A000808080808080808080808080808080834
:0C321A0008080808080808083C3C0000F0
:00000001FF
